{
    "contractName": "Crowdfunding",
    "abi": [
        {
            "inputs": [
                {
                    "internalType": "uint256",
                    "name": "_goal",
                    "type": "uint256"
                }
            ],
            "stateMutability": "nonpayable",
            "type": "constructor"
        },
        {
            "anonymous": false,
            "inputs": [
                {
                    "indexed": true,
                    "internalType": "address",
                    "name": "sender",
                    "type": "address"
                },
                {
                    "indexed": false,
                    "internalType": "uint256",
                    "name": "amount",
                    "type": "uint256"
                }
            ],
            "name": "Funded",
            "type": "event"
        },
        {
            "inputs": [],
            "name": "contribute",
            "outputs": [],
            "stateMutability": "payable",
            "type": "function"
        },
        {
            "inputs": [],
            "name": "goal",
            "outputs": [
                {
                    "internalType": "uint256",
                    "name": "",
                    "type": "uint256"
                }
            ],
            "stateMutability": "view",
            "type": "function"
        },
        {
            "inputs": [],
            "name": "owner",
            "outputs": [
                {
                    "internalType": "address payable",
                    "name": "",
                    "type": "address"
                }
            ],
            "stateMutability": "view",
            "type": "function"
        },
        {
            "inputs": [],
            "name": "raised",
            "outputs": [
                {
                    "internalType": "uint256",
                    "name": "",
                    "type": "uint256"
                }
            ],
            "stateMutability": "view",
            "type": "function"
        },
        {
            "inputs": [],
            "name": "withdraw",
            "outputs": [],
            "stateMutability": "nonpayable",
            "type": "function"
        }
    ],
    "bytecode": "608060405234801561001057600080fd5b5060405161028f38038061028f83398101604081905261002f91610049565b600080546001600160a01b03191633179055600155610062565b60006020828403121561005b57600080fd5b5051919050565b61021e806100716000396000f3fe60806040526004361061004a5760003560e01c80633ccfd60b1461004f57806340193883146100665780638da5cb5b1461008f578063d7bb99ba146100c7578063f0ea4bfc146100cf575b600080fd5b34801561005b57600080fd5b506100646100e5565b005b34801561007257600080fd5b5061007c60015481565b6040519081526020015b60405180910390f35b34801561009b57600080fd5b506000546100af906001600160a01b031681565b6040516001600160a01b039091168152602001610086565b610064610173565b3480156100db57600080fd5b5061007c60025481565b60015460025410156101305760405162461bcd60e51b815260206004820152601060248201526f11dbd85b081b9bdd081c995858da195960821b604482015260640160405180910390fd5b600080546002546040516001600160a01b039092169281156108fc029290818181858888f1935050505015801561016b573d6000803e3d6000fd5b506000600255565b346002600082825461018591906101c1565b909155505060405134815233907f5af8184bef8e4b45eb9f6ed7734d04da38ced226495548f46e0c8ff8d7d9a5249060200160405180910390a2565b808201808211156101e257634e487b7160e01b600052601160045260246000fd5b9291505056fea2646970667358221220dae3ead73120bd0bd5519a443c640e5fc4d4672d45a4d492b53b12d8704b3b3f64736f6c63430008130033",
    "sourcePath": "/Users/katostevenmubiru/Desktop/Solidity/crowdfunding.sol",
    "compiler": {
        "name": "solc",
        "version": "0.8.19+commit.7dd6d404"
    },
    "functionHashes": {
        "contribute()": "d7bb99ba",
        "goal()": "40193883",
        "owner()": "8da5cb5b",
        "raised()": "f0ea4bfc",
        "withdraw()": "3ccfd60b"
    },
    "gasEstimates": {
        "creation": {
            "codeDepositCost": "108400",
            "executionCost": "infinite",
            "totalCost": "infinite"
        },
        "external": {
            "contribute()": "25899",
            "goal()": "2284",
            "owner()": "2359",
            "raised()": "2350",
            "withdraw()": "infinite"
        }
    }
}