{
    "contractName": "Token",
    "abi": [
        {
            "inputs": [
                {
                    "internalType": "address",
                    "name": "",
                    "type": "address"
                }
            ],
            "name": "balances",
            "outputs": [
                {
                    "internalType": "uint256",
                    "name": "",
                    "type": "uint256"
                }
            ],
            "stateMutability": "view",
            "type": "function"
        },
        {
            "inputs": [
                {
                    "internalType": "address",
                    "name": "to",
                    "type": "address"
                },
                {
                    "internalType": "uint256",
                    "name": "amount",
                    "type": "uint256"
                }
            ],
            "name": "transfer",
            "outputs": [],
            "stateMutability": "nonpayable",
            "type": "function"
        }
    ],
    "bytecode": "608060405234801561001057600080fd5b506101d3806100206000396000f3fe608060405234801561001057600080fd5b50600436106100365760003560e01c806327e235e31461003b578063a9059cbb1461006d575b600080fd5b61005b61004936600461010f565b60006020819052908152604090205481565b60405190815260200160405180910390f35b61008061007b366004610131565b610082565b005b3360009081526020819052604090205481111561009e57600080fd5b33600090815260208190526040812080548392906100bd908490610171565b90915550506001600160a01b038216600090815260208190526040812080548392906100ea90849061018a565b90915550505050565b80356001600160a01b038116811461010a57600080fd5b919050565b60006020828403121561012157600080fd5b61012a826100f3565b9392505050565b6000806040838503121561014457600080fd5b61014d836100f3565b946020939093013593505050565b634e487b7160e01b600052601160045260246000fd5b818103818111156101845761018461015b565b92915050565b808201808211156101845761018461015b56fea26469706673582212200a46661a4360cf253c0eb62a6b88c5f6b5a90959846dd7aca57b3310058d7a1a64736f6c63430008130033",
    "sourcePath": "/Users/katostevenmubiru/Desktop/Solidity/tokencontract.sol",
    "compiler": {
        "name": "solc",
        "version": "0.8.19+commit.7dd6d404"
    },
    "functionHashes": {
        "balances(address)": "27e235e3",
        "transfer(address,uint256)": "a9059cbb"
    },
    "gasEstimates": {
        "creation": {
            "codeDepositCost": "93400",
            "executionCost": "141",
            "totalCost": "93541"
        },
        "external": {
            "balances(address)": "2488",
            "transfer(address,uint256)": "infinite"
        }
    }
}