{
  "contractName": "Shipping",
  "abi": [
    {
      "inputs": [],
      "stateMutability": "nonpayable",
      "type": "constructor"
    },
    {
      "anonymous": false,
      "inputs": [
        {
          "indexed": false,
          "internalType": "string",
          "name": "description",
          "type": "string"
        }
      ],
      "name": "LogNewAlert",
      "type": "event"
    },
    {
      "inputs": [],
      "name": "Shipped",
      "outputs": [],
      "stateMutability": "nonpayable",
      "type": "function"
    },
    {
      "inputs": [],
      "name": "Delivered",
      "outputs": [],
      "stateMutability": "nonpayable",
      "type": "function"
    },
    {
      "inputs": [],
      "name": "Status",
      "outputs": [
        {
          "internalType": "string",
          "name": "",
          "type": "string"
        }
      ],
      "stateMutability": "view",
      "type": "function"
    }
  ],
  "bytecode": "0x608060405234801561000f575f80fd5b505f805f6101000a81548160ff021916908360028111156100335761003261003d565b5b021790555061006a565b7f4e487b71000000000000000000000000000000000000000000000000000000005f52602160045260245ffd5b610475806100775f395ff3fe608060405234801561000f575f80fd5b506004361061003f575f3560e01c806345f09ce914610043578063779822f7146100615780637e59301e1461006b575b5f80fd5b61004b610075565b6040516100589190610322565b60405180910390f35b610069610097565b005b6100736100f7565b005b60605f805f9054906101000a900460ff16905061009181610157565b91505090565b60025f806101000a81548160ff021916908360028111156100bb576100ba610342565b5b02179055507fca75c80642b93c980135b8355995abae3ab06033dc81f956b3824323b4903ef56040516100ed906103b9565b60405180910390a1565b60015f806101000a81548160ff0219169083600281111561011b5761011a610342565b5b02179055507fca75c80642b93c980135b8355995abae3ab06033dc81f956b3824323b4903ef560405161014d90610421565b60405180910390a1565b606081600281111561016c5761016b610342565b5b5f600281111561017f5761017e610342565b5b036101c1576040518060400160405280600781526020017f50656e64696e67000000000000000000000000000000000000000000000000008152509050610293565b8160028111156101d4576101d3610342565b5b6002808111156101e7576101e6610342565b5b03610229576040518060400160405280600981526020017f44656c69766572656400000000000000000000000000000000000000000000008152509050610293565b81600281111561023c5761023b610342565b5b600160028111156102505761024f610342565b5b03610292576040518060400160405280600781526020017f53686970706564000000000000000000000000000000000000000000000000008152509050610293565b5b919050565b5f81519050919050565b5f82825260208201905092915050565b5f5b838110156102cf5780820151818401526020810190506102b4565b5f8484015250505050565b5f601f19601f8301169050919050565b5f6102f482610298565b6102fe81856102a2565b935061030e8185602086016102b2565b610317816102da565b840191505092915050565b5f6020820190508181035f83015261033a81846102ea565b905092915050565b7f4e487b71000000000000000000000000000000000000000000000000000000005f52602160045260245ffd5b7f596f75207061636b61676520686173206265656e2064656c69766572656400005f82015250565b5f6103a3601e836102a2565b91506103ae8261036f565b602082019050919050565b5f6020820190508181035f8301526103d081610397565b9050919050565b7f596f757220706163616b61676520686173206265656e207368697070656400005f82015250565b5f61040b601e836102a2565b9150610416826103d7565b602082019050919050565b5f6020820190508181035f830152610438816103ff565b905091905056fea2646970667358221220913d5a0be49555a3f158a5988057642ffa3c53f7023df3e9c0843d1c1a4b8a9864736f6c63430008150033",
  "immutableReferences": {},
  "source": "pragma solidity ^0.8.0;\n\ncontract Shipping{\n \n enum ShippingStatus {Pending, Shipped, Delivered}\n\n ShippingStatus private status;\n\n event LogNewAlert(string description);\n\n constructor() public{\n    status = ShippingStatus.Pending;\n }\n\n function Shipped() public{\n    status = ShippingStatus.Shipped;\n\n   emit LogNewAlert(\"Your pacakage has been shipped\");\n\n\n }\n\n function Delivered() public{\n    status = ShippingStatus.Delivered;\n\n   emit  LogNewAlert(\"You package has been delivered\");\n }\n\n function getStatus(ShippingStatus _status) internal pure returns(string memory){\n    if(ShippingStatus.Pending == _status) return \"Pending\";\n    if(ShippingStatus.Delivered == _status) return \"Delivered\";\n    if(ShippingStatus.Shipped == _status) return \"Shipped\";\n\n }\n\n function Status() public view returns(string memory){\n    ShippingStatus _status = status;\n    return getStatus(_status);\n }\n\n\n\n}",
  "sourcePath": "/Users/katostevenmubiru/Desktop/Solidity/Blockchain-Sol/truffle/contracts/Shipping.sol",
  "compiler": {
    "name": "solc",
    "version": "0.8.21+commit.d9974bed.Emscripten.clang"
  },
  "schemaVersion": "3.4.15",
  "updatedAt": "2023-08-23T08:00:49.305Z",
  "devdoc": {
    "kind": "dev",
    "methods": {},
    "version": 1
  },
  "userdoc": {
    "kind": "user",
    "methods": {},
    "version": 1
  }
}