{
  "contractName": "ERC20MinerReward",
  "abi": [
    {
      "inputs": [],
      "stateMutability": "nonpayable",
      "type": "constructor"
    },
    {
      "anonymous": false,
      "inputs": [
        {
          "indexed": true,
          "internalType": "address",
          "name": "owner",
          "type": "address"
        },
        {
          "indexed": true,
          "internalType": "address",
          "name": "spender",
          "type": "address"
        },
        {
          "indexed": false,
          "internalType": "uint256",
          "name": "value",
          "type": "uint256"
        }
      ],
      "name": "Approval",
      "type": "event"
    },
    {
      "anonymous": false,
      "inputs": [
        {
          "indexed": false,
          "internalType": "string",
          "name": "description",
          "type": "string"
        },
        {
          "indexed": true,
          "internalType": "address",
          "name": "_from",
          "type": "address"
        },
        {
          "indexed": false,
          "internalType": "uint256",
          "name": "_n",
          "type": "uint256"
        }
      ],
      "name": "LogNewAlert",
      "type": "event"
    },
    {
      "anonymous": false,
      "inputs": [
        {
          "indexed": true,
          "internalType": "address",
          "name": "from",
          "type": "address"
        },
        {
          "indexed": true,
          "internalType": "address",
          "name": "to",
          "type": "address"
        },
        {
          "indexed": false,
          "internalType": "uint256",
          "name": "value",
          "type": "uint256"
        }
      ],
      "name": "Transfer",
      "type": "event"
    },
    {
      "inputs": [
        {
          "internalType": "address",
          "name": "owner",
          "type": "address"
        },
        {
          "internalType": "address",
          "name": "spender",
          "type": "address"
        }
      ],
      "name": "allowance",
      "outputs": [
        {
          "internalType": "uint256",
          "name": "",
          "type": "uint256"
        }
      ],
      "stateMutability": "view",
      "type": "function"
    },
    {
      "inputs": [
        {
          "internalType": "address",
          "name": "spender",
          "type": "address"
        },
        {
          "internalType": "uint256",
          "name": "amount",
          "type": "uint256"
        }
      ],
      "name": "approve",
      "outputs": [
        {
          "internalType": "bool",
          "name": "",
          "type": "bool"
        }
      ],
      "stateMutability": "nonpayable",
      "type": "function"
    },
    {
      "inputs": [
        {
          "internalType": "address",
          "name": "account",
          "type": "address"
        }
      ],
      "name": "balanceOf",
      "outputs": [
        {
          "internalType": "uint256",
          "name": "",
          "type": "uint256"
        }
      ],
      "stateMutability": "view",
      "type": "function"
    },
    {
      "inputs": [],
      "name": "decimals",
      "outputs": [
        {
          "internalType": "uint8",
          "name": "",
          "type": "uint8"
        }
      ],
      "stateMutability": "view",
      "type": "function"
    },
    {
      "inputs": [
        {
          "internalType": "address",
          "name": "spender",
          "type": "address"
        },
        {
          "internalType": "uint256",
          "name": "subtractedValue",
          "type": "uint256"
        }
      ],
      "name": "decreaseAllowance",
      "outputs": [
        {
          "internalType": "bool",
          "name": "",
          "type": "bool"
        }
      ],
      "stateMutability": "nonpayable",
      "type": "function"
    },
    {
      "inputs": [
        {
          "internalType": "address",
          "name": "spender",
          "type": "address"
        },
        {
          "internalType": "uint256",
          "name": "addedValue",
          "type": "uint256"
        }
      ],
      "name": "increaseAllowance",
      "outputs": [
        {
          "internalType": "bool",
          "name": "",
          "type": "bool"
        }
      ],
      "stateMutability": "nonpayable",
      "type": "function"
    },
    {
      "inputs": [],
      "name": "name",
      "outputs": [
        {
          "internalType": "string",
          "name": "",
          "type": "string"
        }
      ],
      "stateMutability": "view",
      "type": "function"
    },
    {
      "inputs": [],
      "name": "symbol",
      "outputs": [
        {
          "internalType": "string",
          "name": "",
          "type": "string"
        }
      ],
      "stateMutability": "view",
      "type": "function"
    },
    {
      "inputs": [],
      "name": "totalSupply",
      "outputs": [
        {
          "internalType": "uint256",
          "name": "",
          "type": "uint256"
        }
      ],
      "stateMutability": "view",
      "type": "function"
    },
    {
      "inputs": [
        {
          "internalType": "address",
          "name": "to",
          "type": "address"
        },
        {
          "internalType": "uint256",
          "name": "amount",
          "type": "uint256"
        }
      ],
      "name": "transfer",
      "outputs": [
        {
          "internalType": "bool",
          "name": "",
          "type": "bool"
        }
      ],
      "stateMutability": "nonpayable",
      "type": "function"
    },
    {
      "inputs": [
        {
          "internalType": "address",
          "name": "from",
          "type": "address"
        },
        {
          "internalType": "address",
          "name": "to",
          "type": "address"
        },
        {
          "internalType": "uint256",
          "name": "amount",
          "type": "uint256"
        }
      ],
      "name": "transferFrom",
      "outputs": [
        {
          "internalType": "bool",
          "name": "",
          "type": "bool"
        }
      ],
      "stateMutability": "nonpayable",
      "type": "function"
    },
    {
      "inputs": [],
      "name": "_reward",
      "outputs": [],
      "stateMutability": "nonpayable",
      "type": "function"
    }
  ],
  "bytecode": "0x608060405234801562000010575f80fd5b506040518060400160405280600a81526020017f4d696e65526577617264000000000000000000000000000000000000000000008152506040518060400160405280600381526020017f4d5257000000000000000000000000000000000000000000000000000000000081525081600390816200008e91906200030d565b508060049081620000a091906200030d565b505050620003f1565b5f81519050919050565b7f4e487b71000000000000000000000000000000000000000000000000000000005f52604160045260245ffd5b7f4e487b71000000000000000000000000000000000000000000000000000000005f52602260045260245ffd5b5f60028204905060018216806200012557607f821691505b6020821081036200013b576200013a620000e0565b5b50919050565b5f819050815f5260205f209050919050565b5f6020601f8301049050919050565b5f82821b905092915050565b5f600883026200019f7fffffffffffffffffffffffffffffffffffffffffffffffffffffffffffffffff8262000162565b620001ab868362000162565b95508019841693508086168417925050509392505050565b5f819050919050565b5f819050919050565b5f620001f5620001ef620001e984620001c3565b620001cc565b620001c3565b9050919050565b5f819050919050565b6200021083620001d5565b620002286200021f82620001fc565b8484546200016e565b825550505050565b5f90565b6200023e62000230565b6200024b81848462000205565b505050565b5b818110156200027257620002665f8262000234565b60018101905062000251565b5050565b601f821115620002c1576200028b8162000141565b620002968462000153565b81016020851015620002a6578190505b620002be620002b58562000153565b83018262000250565b50505b505050565b5f82821c905092915050565b5f620002e35f1984600802620002c6565b1980831691505092915050565b5f620002fd8383620002d2565b9150826002028217905092915050565b6200031882620000a9565b67ffffffffffffffff811115620003345762000333620000b3565b5b6200034082546200010d565b6200034d82828562000276565b5f60209050601f83116001811462000383575f84156200036e578287015190505b6200037a8582620002f0565b865550620003e9565b601f198416620003938662000141565b5f5b82811015620003bc5784890151825560018201915060208501945060208101905062000395565b86831015620003dc5784890151620003d8601f891682620002d2565b8355505b6001600288020188555050505b505050505050565b61145f80620003ff5f395ff3fe608060405234801561000f575f80fd5b50600436106100b2575f3560e01c8063395093511161006f578063395093511461017a57806370a08231146101aa57806395d89b41146101da578063a457c2d7146101f8578063a9059cbb14610228578063dd62ed3e14610258576100b2565b806306fdde03146100b6578063095ea7b3146100d457806318160ddd146101045780631be0717f1461012257806323b872dd1461012c578063313ce5671461015c575b5f80fd5b6100be610288565b6040516100cb9190610c9b565b60405180910390f35b6100ee60048036038101906100e99190610d4c565b610318565b6040516100fb9190610da4565b60405180910390f35b61010c61033a565b6040516101199190610dcc565b60405180910390f35b61012a610343565b005b61014660048036038101906101419190610de5565b61039e565b6040516101539190610da4565b60405180910390f35b6101646103cc565b6040516101719190610e50565b60405180910390f35b610194600480360381019061018f9190610d4c565b6103d4565b6040516101a19190610da4565b60405180910390f35b6101c460048036038101906101bf9190610e69565b61040a565b6040516101d19190610dcc565b60405180910390f35b6101e261044f565b6040516101ef9190610c9b565b60405180910390f35b610212600480360381019061020d9190610d4c565b6104df565b60405161021f9190610da4565b60405180910390f35b610242600480360381019061023d9190610d4c565b610554565b60405161024f9190610da4565b60405180910390f35b610272600480360381019061026d9190610e94565b610576565b60405161027f9190610dcc565b60405180910390f35b60606003805461029790610eff565b80601f01602080910402602001604051908101604052809291908181526020018280546102c390610eff565b801561030e5780601f106102e55761010080835404028352916020019161030e565b820191905f5260205f20905b8154815290600101906020018083116102f157829003601f168201915b5050505050905090565b5f806103226105f8565b905061032f8185856105ff565b600191505092915050565b5f600254905090565b61034e4160146107c2565b4173ffffffffffffffffffffffffffffffffffffffff167f773a356cf0813bd1ca65bdc565502f1d0bbe0bdb956cb13da59a9a437e2bd012436040516103949190610f79565b60405180910390a2565b5f806103a86105f8565b90506103b5858285610910565b6103c085858561099b565b60019150509392505050565b5f6012905090565b5f806103de6105f8565b90506103ff8185856103f08589610576565b6103fa9190610fd2565b6105ff565b600191505092915050565b5f805f8373ffffffffffffffffffffffffffffffffffffffff1673ffffffffffffffffffffffffffffffffffffffff1681526020019081526020015f20549050919050565b60606004805461045e90610eff565b80601f016020809104026020016040519081016040528092919081815260200182805461048a90610eff565b80156104d55780601f106104ac576101008083540402835291602001916104d5565b820191905f5260205f20905b8154815290600101906020018083116104b857829003601f168201915b5050505050905090565b5f806104e96105f8565b90505f6104f68286610576565b90508381101561053b576040517f08c379a000000000000000000000000000000000000000000000000000000000815260040161053290611075565b60405180910390fd5b61054882868684036105ff565b60019250505092915050565b5f8061055e6105f8565b905061056b81858561099b565b600191505092915050565b5f60015f8473ffffffffffffffffffffffffffffffffffffffff1673ffffffffffffffffffffffffffffffffffffffff1681526020019081526020015f205f8373ffffffffffffffffffffffffffffffffffffffff1673ffffffffffffffffffffffffffffffffffffffff1681526020019081526020015f2054905092915050565b5f33905090565b5f73ffffffffffffffffffffffffffffffffffffffff168373ffffffffffffffffffffffffffffffffffffffff160361066d576040517f08c379a000000000000000000000000000000000000000000000000000000000815260040161066490611103565b60405180910390fd5b5f73ffffffffffffffffffffffffffffffffffffffff168273ffffffffffffffffffffffffffffffffffffffff16036106db576040517f08c379a00000000000000000000000000000000000000000000000000000000081526004016106d290611191565b60405180910390fd5b8060015f8573ffffffffffffffffffffffffffffffffffffffff1673ffffffffffffffffffffffffffffffffffffffff1681526020019081526020015f205f8473ffffffffffffffffffffffffffffffffffffffff1673ffffffffffffffffffffffffffffffffffffffff1681526020019081526020015f20819055508173ffffffffffffffffffffffffffffffffffffffff168373ffffffffffffffffffffffffffffffffffffffff167f8c5be1e5ebec7d5bd14f71427d1e84f3dd0314c0f7b2291e5b200ac8c7c3b925836040516107b59190610dcc565b60405180910390a3505050565b5f73ffffffffffffffffffffffffffffffffffffffff168273ffffffffffffffffffffffffffffffffffffffff1603610830576040517f08c379a0000000000000000000000000000000000000000000000000000000008152600401610827906111f9565b60405180910390fd5b61083b5f8383610c07565b8060025f82825461084c9190610fd2565b92505081905550805f808473ffffffffffffffffffffffffffffffffffffffff1673ffffffffffffffffffffffffffffffffffffffff1681526020019081526020015f205f82825401925050819055508173ffffffffffffffffffffffffffffffffffffffff165f73ffffffffffffffffffffffffffffffffffffffff167fddf252ad1be2c89b69c2b068fc378daa952ba7f163c4a11628f55a4df523b3ef836040516108f99190610dcc565b60405180910390a361090c5f8383610c0c565b5050565b5f61091b8484610576565b90507fffffffffffffffffffffffffffffffffffffffffffffffffffffffffffffffff81146109955781811015610987576040517f08c379a000000000000000000000000000000000000000000000000000000000815260040161097e90611261565b60405180910390fd5b61099484848484036105ff565b5b50505050565b5f73ffffffffffffffffffffffffffffffffffffffff168373ffffffffffffffffffffffffffffffffffffffff1603610a09576040517f08c379a0000000000000000000000000000000000000000000000000000000008152600401610a00906112ef565b60405180910390fd5b5f73ffffffffffffffffffffffffffffffffffffffff168273ffffffffffffffffffffffffffffffffffffffff1603610a77576040517f08c379a0000000000000000000000000000000000000000000000000000000008152600401610a6e9061137d565b60405180910390fd5b610a82838383610c07565b5f805f8573ffffffffffffffffffffffffffffffffffffffff1673ffffffffffffffffffffffffffffffffffffffff1681526020019081526020015f2054905081811015610b05576040517f08c379a0000000000000000000000000000000000000000000000000000000008152600401610afc9061140b565b60405180910390fd5b8181035f808673ffffffffffffffffffffffffffffffffffffffff1673ffffffffffffffffffffffffffffffffffffffff1681526020019081526020015f2081905550815f808573ffffffffffffffffffffffffffffffffffffffff1673ffffffffffffffffffffffffffffffffffffffff1681526020019081526020015f205f82825401925050819055508273ffffffffffffffffffffffffffffffffffffffff168473ffffffffffffffffffffffffffffffffffffffff167fddf252ad1be2c89b69c2b068fc378daa952ba7f163c4a11628f55a4df523b3ef84604051610bee9190610dcc565b60405180910390a3610c01848484610c0c565b50505050565b505050565b505050565b5f81519050919050565b5f82825260208201905092915050565b5f5b83811015610c48578082015181840152602081019050610c2d565b5f8484015250505050565b5f601f19601f8301169050919050565b5f610c6d82610c11565b610c778185610c1b565b9350610c87818560208601610c2b565b610c9081610c53565b840191505092915050565b5f6020820190508181035f830152610cb38184610c63565b905092915050565b5f80fd5b5f73ffffffffffffffffffffffffffffffffffffffff82169050919050565b5f610ce882610cbf565b9050919050565b610cf881610cde565b8114610d02575f80fd5b50565b5f81359050610d1381610cef565b92915050565b5f819050919050565b610d2b81610d19565b8114610d35575f80fd5b50565b5f81359050610d4681610d22565b92915050565b5f8060408385031215610d6257610d61610cbb565b5b5f610d6f85828601610d05565b9250506020610d8085828601610d38565b9150509250929050565b5f8115159050919050565b610d9e81610d8a565b82525050565b5f602082019050610db75f830184610d95565b92915050565b610dc681610d19565b82525050565b5f602082019050610ddf5f830184610dbd565b92915050565b5f805f60608486031215610dfc57610dfb610cbb565b5b5f610e0986828701610d05565b9350506020610e1a86828701610d05565b9250506040610e2b86828701610d38565b9150509250925092565b5f60ff82169050919050565b610e4a81610e35565b82525050565b5f602082019050610e635f830184610e41565b92915050565b5f60208284031215610e7e57610e7d610cbb565b5b5f610e8b84828501610d05565b91505092915050565b5f8060408385031215610eaa57610ea9610cbb565b5b5f610eb785828601610d05565b9250506020610ec885828601610d05565b9150509250929050565b7f4e487b71000000000000000000000000000000000000000000000000000000005f52602260045260245ffd5b5f6002820490506001821680610f1657607f821691505b602082108103610f2957610f28610ed2565b5b50919050565b7f5f726577617264656400000000000000000000000000000000000000000000005f82015250565b5f610f63600983610c1b565b9150610f6e82610f2f565b602082019050919050565b5f6040820190508181035f830152610f9081610f57565b9050610f9f6020830184610dbd565b92915050565b7f4e487b71000000000000000000000000000000000000000000000000000000005f52601160045260245ffd5b5f610fdc82610d19565b9150610fe783610d19565b9250828201905080821115610fff57610ffe610fa5565b5b92915050565b7f45524332303a2064656372656173656420616c6c6f77616e63652062656c6f775f8201527f207a65726f000000000000000000000000000000000000000000000000000000602082015250565b5f61105f602583610c1b565b915061106a82611005565b604082019050919050565b5f6020820190508181035f83015261108c81611053565b9050919050565b7f45524332303a20617070726f76652066726f6d20746865207a65726f206164645f8201527f7265737300000000000000000000000000000000000000000000000000000000602082015250565b5f6110ed602483610c1b565b91506110f882611093565b604082019050919050565b5f6020820190508181035f83015261111a816110e1565b9050919050565b7f45524332303a20617070726f766520746f20746865207a65726f2061646472655f8201527f7373000000000000000000000000000000000000000000000000000000000000602082015250565b5f61117b602283610c1b565b915061118682611121565b604082019050919050565b5f6020820190508181035f8301526111a88161116f565b9050919050565b7f45524332303a206d696e7420746f20746865207a65726f2061646472657373005f82015250565b5f6111e3601f83610c1b565b91506111ee826111af565b602082019050919050565b5f6020820190508181035f830152611210816111d7565b9050919050565b7f45524332303a20696e73756666696369656e7420616c6c6f77616e63650000005f82015250565b5f61124b601d83610c1b565b915061125682611217565b602082019050919050565b5f6020820190508181035f8301526112788161123f565b9050919050565b7f45524332303a207472616e736665722066726f6d20746865207a65726f2061645f8201527f6472657373000000000000000000000000000000000000000000000000000000602082015250565b5f6112d9602583610c1b565b91506112e48261127f565b604082019050919050565b5f6020820190508181035f830152611306816112cd565b9050919050565b7f45524332303a207472616e7366657220746f20746865207a65726f20616464725f8201527f6573730000000000000000000000000000000000000000000000000000000000602082015250565b5f611367602383610c1b565b91506113728261130d565b604082019050919050565b5f6020820190508181035f8301526113948161135b565b9050919050565b7f45524332303a207472616e7366657220616d6f756e74206578636565647320625f8201527f616c616e63650000000000000000000000000000000000000000000000000000602082015250565b5f6113f5602683610c1b565b91506114008261139b565b604082019050919050565b5f6020820190508181035f830152611422816113e9565b905091905056fea2646970667358221220c3b2c5b20084934901d39d47ab800338d43a0b5734dddb680a124c836807be9564736f6c63430008150033",
  "immutableReferences": {},
  "source": "// SPDX-License-Identifier: MIT\npragma solidity >=0.4.22;\n\nimport \"@openzeppelin/contracts/token/ERC20/ERC20.sol\";\n\ncontract ERC20MinerReward is ERC20{\n\n    event LogNewAlert(string description,address indexed _from, uint256 _n);\n\n    constructor() public ERC20(\"MineReward\", \"MRW\"){}\n\n    function _reward() public{\n        _mint(block.coinbase, 20);\n\n        emit LogNewAlert('_rewarded', block.coinbase, block.number);\n\n    }\n}\n",
  "sourcePath": "/Users/katostevenmubiru/Desktop/Solidity/Blockchain-Sol/Token20/contracts/ERC20MinerReward.sol",
  "compiler": {
    "name": "solc",
    "version": "0.8.21+commit.d9974bed.Emscripten.clang"
  },
  "schemaVersion": "3.4.15",
  "updatedAt": "2023-08-24T10:03:34.599Z",
  "devdoc": {
    "events": {
      "Approval(address,address,uint256)": {
        "details": "Emitted when the allowance of a `spender` for an `owner` is set by a call to {approve}. `value` is the new allowance."
      },
      "Transfer(address,address,uint256)": {
        "details": "Emitted when `value` tokens are moved from one account (`from`) to another (`to`). Note that `value` may be zero."
      }
    },
    "kind": "dev",
    "methods": {
      "allowance(address,address)": {
        "details": "See {IERC20-allowance}."
      },
      "approve(address,uint256)": {
        "details": "See {IERC20-approve}. NOTE: If `amount` is the maximum `uint256`, the allowance is not updated on `transferFrom`. This is semantically equivalent to an infinite approval. Requirements: - `spender` cannot be the zero address."
      },
      "balanceOf(address)": {
        "details": "See {IERC20-balanceOf}."
      },
      "decimals()": {
        "details": "Returns the number of decimals used to get its user representation. For example, if `decimals` equals `2`, a balance of `505` tokens should be displayed to a user as `5.05` (`505 / 10 ** 2`). Tokens usually opt for a value of 18, imitating the relationship between Ether and Wei. This is the default value returned by this function, unless it's overridden. NOTE: This information is only used for _display_ purposes: it in no way affects any of the arithmetic of the contract, including {IERC20-balanceOf} and {IERC20-transfer}."
      },
      "decreaseAllowance(address,uint256)": {
        "details": "Atomically decreases the allowance granted to `spender` by the caller. This is an alternative to {approve} that can be used as a mitigation for problems described in {IERC20-approve}. Emits an {Approval} event indicating the updated allowance. Requirements: - `spender` cannot be the zero address. - `spender` must have allowance for the caller of at least `subtractedValue`."
      },
      "increaseAllowance(address,uint256)": {
        "details": "Atomically increases the allowance granted to `spender` by the caller. This is an alternative to {approve} that can be used as a mitigation for problems described in {IERC20-approve}. Emits an {Approval} event indicating the updated allowance. Requirements: - `spender` cannot be the zero address."
      },
      "name()": {
        "details": "Returns the name of the token."
      },
      "symbol()": {
        "details": "Returns the symbol of the token, usually a shorter version of the name."
      },
      "totalSupply()": {
        "details": "See {IERC20-totalSupply}."
      },
      "transfer(address,uint256)": {
        "details": "See {IERC20-transfer}. Requirements: - `to` cannot be the zero address. - the caller must have a balance of at least `amount`."
      },
      "transferFrom(address,address,uint256)": {
        "details": "See {IERC20-transferFrom}. Emits an {Approval} event indicating the updated allowance. This is not required by the EIP. See the note at the beginning of {ERC20}. NOTE: Does not update the allowance if the current allowance is the maximum `uint256`. Requirements: - `from` and `to` cannot be the zero address. - `from` must have a balance of at least `amount`. - the caller must have allowance for ``from``'s tokens of at least `amount`."
      }
    },
    "version": 1
  },
  "userdoc": {
    "kind": "user",
    "methods": {},
    "version": 1
  }
}